S013000059616769747261636B65722E737265639B
S113000071C0000081C000007FC000007DC00000FE
S11300107BC0000079C0000077C0000075C00000FC
S113002073C0000071C000006FC000006DC000000C
S11300306BC0000069C0000067C0000065C000001C
S113004063C0000061C000005FC000005DC000002C
S11300505BC0000059C0000057C0000055C000003C
S113006053C0000051C000004FC000004DC000004C
S11300704BC0000064C0000047C0000045C0000041
S113008043C0000041C000003FC000003DC000006C
S11300903BC0000039C0000037C0000035C000007C
S11300A033C0000031C000002FC000002DC000008C
S11300B02BC0000029C0000027C0000025C000009C
S11300C023C0000021C000001FC000001DC00000AC
S11300D01BC0000019C0000017C0000015C00000BC
S11300E013C0000011241FBECFEFD1E2DEBFCDBF8D
S11300F000E00CBF22E0A0E0B2E001C01D92A231FA
S1130100B207E1F702D177C17BCF809884E390E016
S113011090930D0280930C02EAE7F0E08FEA80836B
S1130120ABE7B0E08C91887F8C9381E480937C0072
S1130130789480818064808381E090E008951F92A8
S11301400F920FB60F9211248F939F938091780092
S11301509091790090930D0280930C0280910C028F
S113016090910D02937090930D0280930C029F91D5
S11301708F910F900FBE0F901F90189552985A9A16
S11301800895AF92BF92CF92DF92EF92FF920F93B6
S11301901F93CF93DF93CDB7DEB727970FB6F894AD
S11301A0DEBF0FBECDBF663091F4E2E0F2E050E076
S11301B051834083A9015527538342833483158295
S11301C017821682282F30E03187208713C06530CC
S11301D089F4E2E0F2E0D901BB27B183A083328342
S11301E0138215821482282F30E03783268350E04F
S11301F0518740874CE04827462750E002E012E050
S11302000F2EFCE0EF2EF2E0FF2EF02DF8012191ED
S1130210319124273527A901EE15FF05C1F745E0E3
S113022050E050930102409300022E7F3327309315
S11302300F0220930E02A901409550954E7F552739
S113024050931102409310029FEF99839A839CE08C
S11302509B838C836D832E834F83CE0101966C0127
S11302605E0198E0A90EB11C61E070E0F601819195
S11302706F011ED0AC14BD04B9F7F80180810E5F84
S11302801F4F61E070E014D00E151F05B1F72796DB
S11302900FB6F894DEBF0FBECDBFDF91CF911F9193
S11302A00F91FF90EF90DF90CF90BF90AF900895A3
S11302B06115710541F4E0ECF0E0908195FFFDCF0C
S11302C08093C60008956130710539F4E8ECF0E0DC
S11302D0908195FFFDCF8093CE000895519A539A53
S11302E01092C50028E02093C4009EE09093C200C1
S11302F088E18093C1001092CD002093CC009093AC
S1130300CA008093C90008950895CF93DF9300D065
S11303101F921F92CDB7DEB7F7DFE0DFF6DE2EDFE8
S11303207E0126E0E20EF11C0F2EFAE7CF2ED12C2F
S1130330F02D80910C0290910D024AE0BE016F5F96
S11303407F4F26D08E010F5F1F4F60E070E0F801F1
S113035081918F01ADDF0E151F05B9F760E070E0E4
S11303608AE0A6DFF601808180648083FFEF23EDBD
S113037080E3F15020408040E1F700C0000020916C
S11303800C0230910D0240E065E081E0FADED1CF4D
S1130390BB274A3031F4992322F4BDE2909581952C
S11303A09F4F01C0BB27FB015527AA27880F991F20
S11303B0AA1FA41710F0A41B83955051B9F7A05D90
S11303C0AA3308F0A95DA193009779F7B111B1930D
S11303D01192CB0100C0DC01FC01672F71917723DE
S11303E0E1F7329704C07C916D9370836291AE17EC
S10D03F0BF07C8F30895F894FFCF87
S9030000FC
