:1000000071C000008EC000008CC000008AC00000DB
:1000100088C0000086C0000084C0000082C00000CC
:1000200080C000007EC000007CC000007AC00000DC
:1000300078C0000076C0000074C0000072C00000EC
:1000400070C000006EC000006CC000006AC00000FC
:1000500068C0000066C0000064C0000062C000000C
:1000600060C000005EC000005CC000005AC000001C
:1000700058C0000070C0000054C0000052C0000012
:1000800050C000004EC000004CC000004AC000003C
:1000900094C2000046C0000044C0000042C00000FE
:1000A00040C000003EC000003CC000003AC000005C
:1000B00038C0000036C0000034C0000032C000006C
:1000C00030C000002EC000002CC000002AC000007C
:1000D00028C0000026C0000024C0000022C000008C
:1000E00020C0000011241FBECFEFD1E2DEBFCDBF84
:1000F00000E00CBF12E0A0E0B2E0EEEEFFE000E0B6
:100100000BBF02C007900D92A63BB107D9F722E0C2
:10011000A6EBB2E001C01D92AC3CB207E1F708D4F7
:1001200064C76ECF809884E390E09093C702809379
:10013000C602EAE7F0E08FEA8083ABE7B0E08C919B
:10014000887F8C9381E480937C00808180648083AD
:1001500081E090E008951F920F920FB60F92112444
:100160008F939F9380917800909179009093C7022C
:100170008093C6028091C6029091C70293709093BB
:10018000C7028093C6029F918F910F900FBE0F9070
:100190001F901895AF92BF92CF92DF92EF92FF928D
:1001A0000F931F93CF93DF93CDB7DEB727970FB68B
:1001B000F894DEBF0FBECDBF663091F4E8EBF2E0FD
:1001C00050E051834083A9015527538342833483F0
:1001D000158217821682282F30E03187208713C0BE
:1001E000653089F4E8EBF2E0D901BB27B183A08345
:1001F0003283138215821482282F30E037832683BE
:1002000050E0518740874CE04827462750E008EBF4
:1002100012E00F2EF2ECEF2EF2E0FF2EF02DF8019F
:100220002191319124273527A901EE15FF05C1F74A
:1002300045E050E05093B7024093B6022E7F33273B
:100240003093C9022093C802A901409550954E7F72
:1002500055275093CB024093CA029FEF99839A830C
:100260009CE09B838C836D832E834F83CE0101960C
:100270006C015E0198E0A90EB11C61E070E0F6012E
:1002800081916F0152D1AC14BD04B9F7F80180819E
:100290000E5F1F4F61E070E048D10E151F05B1F7EA
:1002A00027960FB6F894DEBF0FBECDBFDF91CF917A
:1002B0001F910F91FF90EF90DF90CF90BF90AF9084
:1002C0000895CF93DF93D82FC62F87E086278D27F9
:1002D0008E7F90E09093C9028093C802809590959C
:1002E0008E7F99279093CB028093CA0261E070E0E1
:1002F0008FEF1BD161E070E08FEF17D161E070E00C
:1003000087E013D161E070E08D2F0FD161E070E0E4
:100310008C2F0BD161E070E08091C80206D161E0C2
:1003200070E08091CA0201D1DF91CF9108950F93BF
:100330001F93CF93DF93082F162FD42FC22F2BE0BC
:100340002427262728278C2F0C2E000C990B822778
:100350008E7F99279093C9028093C80280959095CB
:100360008E7F99279093CB028093CA0261E070E060
:100370008FEFDBD061E070E08FEFD7D061E070E00D
:100380008AE0D3D061E070E0802FCFD061E070E0F0
:10039000812FCBD061E070E08091C802C6D061E0CF
:1003A00070E08091CA02C1D061E070E08D2FBDD0B5
:1003B00061E070E081E0B9D061E070E08C2FB5D0F1
:1003C000DF91CF911F910F910895FF920F931F938B
:1003D000CF93DF93F82E162FD42FC22F29E0242796
:1003E000262728278C2F8027082E000C990B822780
:1003F0008E7F99279093C9028093C802809590952B
:100400008E7F99279093CB028093CA0261E070E0BF
:100410008FEF8BD061E070E08FEF87D061E070E00C
:100420008BE083D061E070E08F2D7FD061E070E0E1
:10043000812F7BD061E070E08091C80276D061E0CE
:1004400070E08091CA0271D061E070E08D2F6DD0B4
:1004500061E070E082E069D061E070E08C2F65D0EF
:1004600061E070E0802F61D0DF91CF911F910F91FB
:10047000FF900895EF92FF920F931F93CF93DF9316
:1004800052985A9A68E081E01CDF2FEF83E294EFE4
:10049000215080409040E1F700C00000C9E0D2E068
:1004A0000FE012E08881803398F42981482F63E0BF
:1004B00081E03DDF60E070E088E637D02FEF89EF24
:1004C00090E0215080409040E1F700C0000003C060
:1004D00060E070E02AD022960C171D0719F7C0E0E3
:1004E000D2E00F2EF9E0EF2EF2E0FF2EF02D488142
:1004F00084EF840F893128F40A81298163E081E047
:1005000064DF2396EC16FD0691F72FEF89EF90E05C
:10051000215080409040E1F700C00000DF91CF9172
:100520001F910F91FF90EF9008956115710541F4AF
:10053000E0ECF0E0908195FFFDCF8093C600089538
:100540006130710539F4E8ECF0E0908195FFFDCF62
:100550008093CE000895009741F4E0ECF0E08081B4
:100560008823ECF78091C6000895019741F4E8ECE8
:10057000F0E080818823ECF78091CE00089580E040
:1005800008955298539A1092C50028E02093C40011
:100590009EE09093C20088E18093C100E8ECF0E017
:1005A0008081806880831092CD002093CC0090934E
:1005B000CA0088E98093C90008951F920F920FB670
:1005C0000F9211240BB60F924F925F927F928F92EF
:1005D0009F92AF92BF92CF92DF92EF92FF920F93D2
:1005E0001F932F933F934F935F936F937F938F93BB
:1005F0009F93AF93BF93EF93FF93CF93DF93CDB7C9
:10060000DEB7C351D140DEBFCDBFE9ECF0E0808161
:100610008F77808360E070E08DE287DF81E090E09B
:100620009ADF8F3F09F04DC181E090E094DF8F3F6A
:1006300009F047C181E090E08EDFB82EC82E880F08
:10064000DD08C114D10409F43CC181E090E083DFEE
:10065000A82E482E880F550881E090E07CDF782E88
:10066000882E880F990881E090E075DF81E090E0A6
:1006700072DFC60107971816190674F48E011395D8
:100680007C01E00EF11E81E090E065DFF8018193CE
:100690008F01EE15FF05B9F7F7E48F16910409F005
:1006A0005AC0C95FDE4F8881C750D14090E0982F73
:1006B0008827CA5FDE4F2881C650D140820F911D26
:1006C0009093C3028093C202CB5FDE4F8881C550F6
:1006D000D14090E0982F8827CC5FDE4F2881C4500E
:1006E000D140820F911D9093C5028093C402C75FD1
:1006F000DE4F8881C950D1401F928F93C85FDE4F73
:100700008881C850D1401F928F9381E192E09F93DE
:100710008F93CE0101969F938F938CD189810FB6D1
:10072000F894DEBF0FBECDBF882309F4A1C08E01AF
:100730000E5F1F4F7E0131E0E30EF31E60E070E0BC
:10074000F4DEF80181918F01882309F491C0EE163F
:10075000FF06A1F78DC0F4E48F16910421F022E486
:1007600082169104C9F460E070E0CD5FDE4F8881AD
:10077000C350D140DADE3CE0C316D10441F460E05E
:1007800070E0CC5FDE4F8881C450D140CEDE60E0A7
:1007900070E08AE0CADE6CC085E48816910499F5A1
:1007A000CF5FDE4F8881C150D1401F928F93C050E0
:1007B000DF4F8881C050D1401F928F9381E392E038
:1007C0009F938F93CE0101969F938F9333D189810D
:1007D0000FB6F894DEBF0FBECDBF882309F448C022
:1007E0008E010E5F1F4F7E01F1E0EF0EFF1E60E0F5
:1007F00070E09BDEF80181918F018823C9F1EE152D
:10080000FF05A9F735C0F3E48F16910489F5CF5F92
:10081000DE4F8881C150D1401F928F93C050DF4F6F
:100820008881C050D1401F928F9382E592E09F93C0
:100830008F93CE0101969F938F93FCD089810FB641
:10084000F894DEBF0FBECDBF882391F08E010E5FFE
:100850001F4F7E0131E0E30EF31E60E070E065DEC5
:10086000F80181918F01882319F0EE15FF05A9F792
:10087000DF92BF925F92AF929F927F9281E792E068
:100880009F938F93CE0101969F938F93D3D08981AD
:100890000FB6F894DEBF0FBECDBF882391F08E0156
:1008A0000E5F1F4F7E0131E0E30EF31E60E070E04B
:1008B0003CDEF80181918F01882319F0EE16FF06C6
:1008C000A9F760E070E08AE030DE60E070E08FE27F
:1008D0002CDEE9ECF0E0808180688083CD5EDE4F25
:1008E0000FB6F894DEBF0FBECDBFDF91CF91FF9161
:1008F000EF91BF91AF919F918F917F916F915F9198
:100900004F913F912F911F910F91FF90EF90DF90AA
:10091000CF90BF90AF909F908F907F905F904F90BF
:100920000F900BBE0F900FBE0F901F90189508955B
:10093000CF93DF93CDB7DEB7CF5FD1090FB6F89471
:10094000DEBF0FBECDBFF3DF1CDEECDB279A789451
:1009500091DD67E081E0B5DC2FEF81EE94E021507E
:1009600080409040E1F700C0000020E032E044E623
:1009700065E081E00FDC0F2EFFE8EF2EF2E0FF2EA6
:10098000F02DFE0131966F0100E010E0FFEF20E74F
:1009900082E0F15020408040E1F700C0000020914B
:1009A000C6023091C70280910F0290911002281761
:1009B000390781F02091C6023091C70240E065E01E
:1009C00081E0E8DB8091C6029091C702909310020B
:1009D00080930F020F5F1F4F003197E21907B1F6A6
:1009E00080910F02909110026091C2027091C30237
:1009F0004091C4025091C5022091C2023091C302BD
:100A0000FC01E61BF70BBF017F93EF939F938F933E
:100A10005F934F933F932F93FF92EF92DF92CF928A
:100A200009D067E081E04DDC0FB6F894DEBF0FBE61
:100A3000CDBFAACF0F931F93CF93DF93CDB7DEB770
:100A40002E970FB6F894DEBF0FBECDBF0E891F895B
:100A500086E08C831A8309838FEF9FE79E838D83C3
:100A6000AE01465E5F4F688D798DCE01019610D044
:100A7000EF81F885E00FF11F10822E960FB6F894E3
:100A8000DEBF0FBECDBFDF91CF911F910F910895B3
:100A90002F923F924F925F926F927F928F929F928E
:100AA000AF92BF92CF92DF92EF92FF920F931F937C
:100AB000CF93DF93CDB7DEB72B970FB6F894DEBF99
:100AC0000FBECDBF6C017B018A01FC01178216822B
:100AD000838181FFBFC1CE0101963C01F601938164
:100AE000F70193FD859193FF81917F01882309F49C
:100AF000ADC1853239F493FD859193FF81917F01DA
:100B0000853221F4B60190E0D6D1E8CF912C212C8A
:100B1000312CFFE1F315D8F08B3279F038F48032C4
:100B200079F08332A1F4232D20611DC08D3261F054
:100B3000803369F4232D216016C0832D8260382E06
:100B4000E32DE4603E2E2AC0F32DF8601DC037FC73
:100B50002DC020ED280F2A3040F08E32B9F436FC3B
:100B600075C1232D2064322E19C036FE06C08AE0DE
:100B7000989E200D1124922E11C0EAE02E9E200D89
:100B80001124222EF32DF0623F2E08C08C3621F462
:100B9000832D8068382E02C0883641F4F70193FD1A
:100BA000859193FF81917F018111B3CF982F9F7D14
:100BB0009554933028F40C5F1F4F9FE399830DC029
:100BC000833631F0833771F0833509F055C020C08A
:100BD000F801808189830E5F1F4F88248394912CB4
:100BE000530112C02801F2E04F0E511CF801A08001
:100BF000B18036FE03C0692D70E002C06FEF7FEF59
:100C0000C5014ED14C018201F32DFF773F2E15C057
:100C1000280122E0420E511CF801A080B18036FE6E
:100C200003C0692D70E002C06FEF7FEFC5012DD1C9
:100C30004C01F32DF0683F2E820133FC19C0822D48
:100C400090E088169906A0F4B60180E290E033D1D6
:100C50002A94F5CFF50137FC859137FE81915F012C
:100C6000B60190E028D121102A9421E0821A91083F
:100C70008114910479F7E1C0843611F0893639F591
:100C8000F80137FE07C060817181828193810C5F1A
:100C90001F4F08C060817181072E000C880B990BD3
:100CA0000E5F1F4FF32DFF763F2E97FF09C09095E3
:100CB0008095709561957F4F8F4F9F4FF0683F2EC5
:100CC0002AE030E0A30133D1882E861844C085374E
:100CD00031F4232D2F7EB22E2AE030E025C0932D53
:100CE000997FB92E8F36C1F018F4883579F0AEC0EF
:100CF000803719F0883721F0A9C0E92FE061BE2EB6
:100D0000B4FE0DC0FB2DF460BF2E09C034FE0AC036
:100D1000292F2660B22E06C028E030E005C020E171
:100D200030E002C020E132E0F801B7FE07C0608188
:100D30007181828193810C5F1F4F06C06081718138
:100D400080E090E00E5F1F4FA301F1D0882E86183F
:100D5000FB2DFF773F2E36FE0DC0232D2E7FA22EBA
:100D6000891458F434FE0BC032FC09C0832D8E7EEA
:100D7000A82E05C0B82CA32C03C0B82C01C0B92CD8
:100D8000A4FE0FC0FE01E80DF11D8081803321F427
:100D90009A2D997EA92E09C0A2FE06C0B394B394E1
:100DA00004C08A2D867809F0B394A3FC10C0A0FE7D
:100DB00006C0B21480F4280C922C9B180DC0B214FB
:100DC00058F4B60180E290E076D0B394F8CFB21434
:100DD00018F42B1802C0982C212CA4FE0FC0B601C9
:100DE00080E390E068D0A2FE16C0A1FC03C088E7B3
:100DF00090E002C088E590E0B6010CC08A2D8678AC
:100E000051F0A1FE02C08BE201C080E2A7FC8DE29E
:100E1000B60190E050D0891430F4B60180E390E040
:100E20004AD09A94F8CF8A94F301E80DF11D80819D
:100E3000B60190E040D08110F6CF222009F44ECECA
:100E4000B60180E290E037D02A94F7CFF601868190
:100E5000978102C08FEF9FEF2B960FB6F894DEBFFD
:100E60000FBECDBFDF91CF911F910F91FF90EF90FB
:100E7000DF90CF90BF90AF909F908F907F906F90BA
:100E80005F904F903F902F900895FC010590615026
:100E900070400110D8F7809590958E0F9F1F089590
:100EA000FC016150704001900110D8F78095909539
:100EB0008E0F9F1F08950F931F93CF93DF93FB0116
:100EC000238121FD03C08FEF9FEF2CC022FF16C0AE
:100ED00046815781248135814217530744F4A0810C
:100EE000B1819D012F5F3F4F318320838C932681F9
:100EF00037812F5F3F4F3783268314C08B01EC016E
:100F0000FB010084F185E02D1995892BE1F6D801CC
:100F100016968D919C911797019617969C938E9398
:100F20001697CE01DF91CF911F910F910895FA018D
:100F3000AA27283051F1203181F1E8946F936E7F18
:100F40006E5F7F4F8F4F9F4FAF4FB1E03ED0B4E009
:100F50003CD0670F781F891F9A1FA11D680F791F4A
:100F60008A1F911DA11D6A0F711D811D911DA11D5B
:100F700020D009F468943F912AE0269F112430196B
:100F8000305D3193DEF6CF010895462F4770405D06
:100F90004193B3E00FD0C9F7F6CF462F4F70405DB5
:100FA0004A3318F0495D31FD4052419302D0A9F710
:100FB000EACFB4E0A6959795879577956795BA950A
:100FC000C9F700976105710508959B01AC010A2ED0
:100FD00006945795479537952795BA95C9F7620FA7
:0E0FE000731F841F951FA01D0895F894FFCF66
:100FEE001800021A00011C0000010208002F00FF69
:100FFE00FF53544154206D6573736167653A2065E4
:10100E0072726F7225782073746174757325780A05
:10101E0000495F4A4F47206D6573736167653A20DB
:10102E006572726F7225782073746174757325788A
:10103E000A0052414D206D6573736167653A2065F4
:10104E0072726F7225782073746174757325780AC5
:10105E00004D6573736167653A20434D44257820D2
:10106E00494425642053697A653D2564200A00525F
:10107E0065616C3D25782C207461726765743D2521
:10108E00782C206164633D25782C206572726F7216
:06109E003A25780A00006B
:00000001FF
